:020000040000FA
:0600000016EF15F01200DE
:0600080004EF08F01200F5
:060018000CEF08F01200DD
:0610000016EF15F01200CE
:021006001200D6
:061008008CEF0EF0120057
:06101800BEEF0EF0120015
:02101E000100CF
:0C102000642A0000BD0000002A0000004F
:04102C0057EC0EF07F
:10103000A0940F015F6B626A536BA1EC0DF0D7ECCB
:101040000DF0DF6ADFEC0DF003E287EC0DF0FAD76C
:10105000648C0F015C6B6498649C62A607D06296F6
:101060000001A26BA76BA86BA96BF7D70001010E5B
:10107000B96FBA6FBB6BBC6BAF6BDF6A020EDF5C24
:1010800011E2EA6ADF345AEC0EF0EA22EE6AED6A07
:10109000EA6ADF3461EC0EF0EA22EE6AED6A97EC60
:1010A0000DF0ECD70001080E9A6F020E9B6F0F0136
:1010B000160E536F0201200E026F020E036F080E10
:1010C000016F840E006F0001906B8F6BE55261EF32
:1010D0000DF057EC0EF000018F510BE1646A606A6D
:1010E000D7EC0DF064B602D06486FCD70001010E87
:1010F0008F6F8F0508E164BA06D0626A606A60800B
:101100006088020E8F6F6250040B05E06050040B84
:1011100002E0629499D864B245D06250010B08E0B5
:101120006050010B05E082DF0001040E8F6F6290BA
:101130006250100B05E06050100B02E07AD8629804
:1011400062AC0FD060AC05D0F6EC0DF0730E4EEC37
:101150000DF0629C0001B75101E0B707B75101E102
:1011600024DA6250200B04E06050200B01E04DD8DF
:101170006250020B0CE06050020B09E0F6EC0DF03F
:10118000E6687F0EE66E68EC0EF00F015F6B040EF2
:101190000001E76E8F19E8AE02D0E73402D0E750C5
:1011A0008F5D02E2A1942ED060A62BD0DF6A040EE0
:1011B000DF5C27E262A625D063CFB0F00001B0511A
:1011C000780BE842E842E842B16F6296B0B504D0CD
:1011D000B1516FEC0EF003D0B15174EC0EF0EA2275
:1011E000EF70B15102E13ED80AD0000EE66EE66A19
:1011F000B00EE66E000EE66E720E4EEC0DF0DF2ABB
:10120000D6D7A194E55261EF0DF00F0153A10FD095
:101210006DEC0DF0EF50800809E157EC0DF0EF5048
:10122000840804E16DEC0DF08C0EEF6E5391629A20
:1012300012006084629864820001010EAF6FBDEC01
:101240000DF0750E4EEF0DF00001AF6BBDEC0DF023
:10125000740E4EEC0DF06492609462A402D062941D
:10126000FCD7120057EC0EF000012D0EB76FFD0EEB
:10127000B01540E17E0EB015E8407F0B040DF3CFB2
:1012800092F0F4CF93F0000E9227020E932392C0B7
:1012900094F093C095F094756DEC0DF0EF503C0B0D
:1012A000E842E8420D0824E1DF6A080EDF5C1AE23A
:1012B0006DEC0DF0020EE926000EAAEC0DF0EF50D9
:1012C000E66EDF50EA6A200FE96E020EEA22E5526E
:1012D000E750EF6E6DEC0DF083EC0EF0EE2AEF228E
:1012E000DF2AE3D76DEC0DF023EC0EF00AD807D01F
:1012F00025D805D0FD0EB015040801E12ED8E55221
:10130000E0D300019E6BB86BBB6BBC6BB26B9F6B89
:10131000CEDBEF9E9A75CBDBEF9E9A7512EC0EF04A
:10132000EF9EA26BA36BA46BA76BA86BA96B53D8A2
:10133000BDEC0DF0030EB2DB8FEF0BF0020E0001DF
:101340009F5D02E1FBEF0BF09F6BB25104E19DDB6F
:101350008C0EEF6E1200B26B120057EC0EF0A7DB92
:10136000EF50400B01E0010EDF6E00019A75080E90
:101370008F5D0BE122C25CFF0F015C5103E00001B5
:10138000100E02D00001040E8F6F9F0513E18FDB5A
:10139000A9DBF2D9020E00019E5D03E188DB840E19
:1013A00007D0DF5003E183DBC80E02D080DB880E5C
:1013B000EF6E0FD0A7AF0CD0AA51AB1107E005D04C
:1013C000ABC0FAFF0001AA51F96EFADF0001A79F36
:1013D0009F6BE55276D302012051600BE842E84250
:1013E000E842E842E842000901E0120021510C0AFB
:1013F00045E00B0A3FE00C0A31E0010A22E00B0A4B
:101400001EE0020A1CE0030A18E0080A10E0010AC4
:101410000CE00F0A08E0030A01E012000001A28FAD
:10142000080E8F6F120017EF0BF05FEF0CF000014A
:10143000900EA06F000EA16F0CD054EF0BF03FEF99
:101440000AF024510001A06FA16B910EA027000E9D
:10145000A123A281010EA36FA28F12000001A28F0F
:1014600002012451EA6A910FE96E000EEA2222C2BB
:10147000EFFF120082DB020E4EEF0DF012001CDBBC
:10148000050EE1260201220510E120511F0B000983
:101490000CE10001A28F030E0201215D04E10001B5
:1014A000010EAE6F02D00001AE6B0201225101E0CD
:1014B00075D020511F0B020871E124510F0B000958
:1014C0006DE024510F0B010869E3200E00018F5DD0
:1014D00065E1A28F020124BF04D0D0DB54DB59DBCD
:1014E00003D0D1DB50DB59DBEA22020EEFCFDBFF6A
:1014F00084DB010B03E1000EDF9401D0DF8424BF05
:1015000002D0BCDB01D0BFDBEA22DECFEEFFDDCFB5
:10151000EDFF030E215D0DE1BBDB07E024BF02D030
:1015200038DB01D03ADBEA22EF82840E88EC0EF041
:1015300035D0DF74ADDB06E0B5DAEF9EB3DAEF8CC1
:101540008CDB02D0AFDAEF8CDF7457DB020B02E1E9
:101550009FDB0DE0020124BF02D01BDB01D01DDBAD
:10156000EA22EF923B0E106EC4DB77DB02D03B0E1B
:10157000C0DB020124510F0B116A530F106E0F0EC6
:101580001122030E10C0DBFF040E11C0DBFF030E9F
:10159000DBCFE9FF040EDBCFEAFFEF90050EE15C45
:1015A00002E2E16AE552E16E8CD20001B95121E11B
:1015B000010EB96FBA511DE1010EBA6F020E9F5DA7
:1015C00007E175DAEE52EF6A72DAC80EEF6E1200BA
:1015D0009F050FE1B26B81DAEE52080EEF6E7DDAF5
:1015E00032DB7BDA840EEF6E010EB26F4EDA800EC4
:1015F000EF6E12000001BB6BBC6B020E9F5D04E13D
:101600007CDB70DA0FDB10D0A3510201265D0001F4
:10161000A4510201275904E226C2A3F027C2A4F074
:10162000ABD845DA5FDA43DAC80EEF6E1200800EEF
:101630000201205D38E10001C00EA26F02012351BA
:10164000030A1AE0010A09E0030A2BE10001EE0E89
:10165000A06F260EA16F120E1ED0DDDACE0EF6267A
:10166000270EB5DA020E0001CFDAF5CFA3F0030E94
:10167000CBDAF5CFA4F01200030E225D0FE2CBDA35
:10168000D00EF626270EA3DAA0C0F6FFA1C0F7FF02
:101690000800F5500001A36FA46B12000001A26BBB
:1016A00012000001A26B1200D4DA0201286B296B30
:1016B00020511F0B020A11E0030A0CE0010A1EE18F
:1016C0000001A28F020128810001AE0517E102018D
:1016D000288314D00001A28F11D00001A28F020133
:1016E00024BF02D0CBDA01D0CEDA4DDAD1DA06E06F
:1016F000D9D9EF50040B02E0010E286F0001A2AF10
:1017000007D0280EA06F020EA16FA281020EA36F58
:10171000020EE15C02E2E16AE552E16ED2D1649828
:101720000001A2BF0DD0A7AF09D0020E9F6FBC5120
:1017300001E160DF0001BA6BB96B120037EF0EF008
:10174000020120AF0DD00001010E9F6FBB5101E1DE
:1017500051DF0001BA6BB96BB8510DE1D5EF0AF05A
:101760000001020E9F6F91D9840EEF6EBA6BB96BB8
:10177000B85101E11ADF12009ADA080EDF6E00019B
:10178000A35D000EA4590AE2A3C0DFFF9E5102E14F
:10179000010E03D09E0502E1020E9E6FDF50116A1A
:1017A000E850A35DA36F1150A459A46F80D9EE52E5
:1017B000DFCFEFFF280EAC6F020EAD6FA2B10DD0E0
:1017C000DF5017E0A0C0F6FFA1C0F7FFA02B000E6E
:1017D000A1230800F550C4D9F3D7DF500AE0A0C018
:1017E000E9FFA1C0EAFFA02B000EA123EF50B8D95A
:1017F000F4D7E55266D12DDA70D9EE52EFCFDFFF84
:10180000DFCF10F010500001A85D000EA95902E2D0
:10181000A8C0DFFFDF50106E116AE850A85DA86F06
:101820001150A959A96F010EDB6ADF50F36E010E4A
:10183000DBCFF4FFF350F45C16E2010EDB50EA6AF2
:10184000280FE96E020EEA22EF50E66EA5C0E9FF0E
:10185000A6C0EAFFA52B000EA623E552E750EF6EC7
:10186000010EDB2AE2D7000ED880A855000EA9553C
:101870000DE243DA37D931D9EF50400B03E1D2D929
:10188000C80E02D0CFD9880EEF6E12D0FED8840ECB
:10189000EF6EAA51AB1107E005D0ABC0FAFF000113
:1018A000AA51F96EFADF0001A79FB85101E17DDE70
:1018B000020EE15C02E2E16AE552E16E02D1F7D983
:1018C0000001A28F3ED9DF6A7AD902E220D9FCD783
:1018D000648CDF6A020EDF5C02E229D9FBD7010EBD
:1018E000E66EE66AE66A910EE66E000ED8D9649C52
:1018F0000001080E9A6F020E9B6F000E926F020E8F
:10190000936F92C094F0956F22C290F0905102E1D3
:10191000100E0BD0010EE66EE66A900EE66E000E1B
:10192000E66E010EBBD80001200E8F6FE552C9D0C4
:1019300090D9000EDE6E020EDD6EDAD8040DF4CF03
:1019400011F0D9CFE9FFDACFEAFFF350EE261150BC
:10195000ED22A8D8EF9EFD0EDB5002E1D3D801D0D6
:1019600098D8EA22DECFEEFFDDCFEDFF9BD8EF9CCB
:1019700099D8040EE926000EEA22EF8C020EE15CF3
:1019800002E2E16AE552E16E9CD063D9FD0EDBA470
:1019900002D0E66A24D9FD0EDBA203D0010EE66E6A
:1019A0001ED9FE0EDB50116A530F106E0F0EF9D8C0
:1019B00079D8FD0EDBCFEFFF020EE15C02E2E16AB7
:1019C000E552E16E7ED045D9FE0EDB5002E14FD9E3
:1019D00005D08ED82CD98CD8010F29D9020EE15C04
:1019E00002E2E16AE552E16E6CD033D9FD0EDB50C4
:1019F00002E04FD801D086D8C6D8D9CFE9FFDACFD8
:101A0000EAFFEE50ED1003E1F36AF46A21D04AD800
:101A10007AD9FB0EDBCFEEFFFC0EDBCFEDFF42D819
:101A2000EE52FA0EDBCFEFFF400E63D9880E70D96D
:101A3000FD0EDB5002E02DD801D064D8EA22EF740D
:101A4000DECF10F0DDCF11F010C0F3FF11C0F4FFB6
:101A5000020EE15C02E2E16AE552E16E32D02CD87E
:101A600064A812D019D9400EEE16EE6AEE6AEE6A3C
:101A700013D9EE7C0ED8EA22EF74400E106E0CD90A
:101A80001050EF1609D9EF7C1CD037D9DCD812EFF3
:101A90000EF0FE0EEA6ADB345AEF0EF0E66EE66AEE
:101AA00068EF0EF0DECFE9FFDDCFEAFF12009AC04B
:101AB000E9FF9BC0EAFF1200D9CFE6FFE1CFD9FFD3
:101AC0001200E552E7CFD9FF120024510F0BE96E47
:101AD000EA6AD890E936EA36120092C0E9FF93C06C
:101AE000EAFF120010D9280EEE6E020EED6E120003
:101AF000FD0EDB50E824126EFE0EDB50040DF35099
:101B000012241200FE0EEA6ADB3461EF0EF0DF50A1
:101B1000040DF3CFE9FFF4CFEAFF000EE926020E31
:101B2000EA22EE6AEE6AEE6AEE6ADF2A1200DF50FF
:101B3000DBD8EA22EF6ADF50D2D8EA22EF6ADF2A46
:101B40001200010EE66EE66AE66A540EE66E0F0EAD
:101B50004FEF0EF0EA22EE50EFCFEAFFE96E1200EF
:101B6000E66EACC0E9FFADC0EAFFAC2B000EAD23C2
:101B7000E552E750EF6EDF061200000EE66EE66AF1
:101B8000E66EE66A1200EA22EECFDEFFEDCFDDFF61
:101B9000120024510F0B6FEF0EF024510F0B74EF56
:101BA0000EF0112210C0DEFF11C0DDFF1200160E74
:101BB000616E0F019F0E5B6F7B0E606E1200DF5037
:101BC000106E116A080E105C000E11581200F722F8
:101BD0000900F5CFA0F00A00F5CFA1F01200FE0E2B
:101BE000DBCFE6FFA5DEE552E5521200010EE66E00
:101BF000E66A000EE66EE66A1200D950020FE96E40
:101C0000DACFEAFFEF501200F76AA025F66EA15175
:101C1000F722080012002251F66EF76AD890F636C5
:101C2000F736120094C0E9FF95C0EAFF1200040DD8
:101C3000F3CF10F0F4CF11F0000E1026020EB1DF3A
:101C4000840E88EF0EF05FD8200EEE6E020EED6E61
:101C5000120032DF020EE1261200020EE66EE66A84
:101C6000DECFE6FFDDCFE6FF050E4EEF0DF00DDF18
:101C70008C0EEF6E1CDF840EEF6E120026DF960EC8
:101C8000E926000E120021DF9A0EE926000E12004E
:101C900009DFEF50800B1200FCDEAAEF0DF0E66EBC
:101CA000A0EC14F0106E050EE15E1050120004DF7F
:101CB000E6521200FE0BEA36E96E9A0EE926000E95
:101CC0001200FE0BEA36E96E960EE926000E1200AF
:101CD0002FEC12F0106E060EE15E10501200EA6A50
:101CE000B50FE96E000E1200EA6AB30FE96E000E3E
:101CF0001200D8DEE850EF16120094DFEE52080E04
:101D0000EF6E12EF0EF0020EE926000EEA2212002C
:081D1000C9DEE850EF121200D9
:081D1800DACFE4FFE652F250BD
:101D2000200B0EE0F250040B0BE0F294F40ED76E91
:101D3000480ED66E0001892B000E8A238B238C233C
:101D4000F250100B09E0F250020B06E0000120EC0B
:101D500013F0F29205EC13F0F050100B0BE0F05082
:101D6000020B08E000017C8120EC13F0F09205ECFE
:101D700013F08B86E552E5CFDAFF1100D8CFE4FFF0
:101D8000E0CFE4FFE46EDACFE4FFE652E552E5CFC0
:101D9000DAFFE550E5CFE0FFE5CFD8FF100004D82B
:101DA00069EC08F085DAFCD70F0EC11202D816EFE5
:101DB00008F00001896B8A6B8B6B8C6B846B856B75
:101DC000866B876B7C6B7D6B7E6B7F6B886BF50E98
:101DD0008B1694168B827E6A94809484F19CF28890
:101DE000F198F088F292F092810ED56EF294F40E92
:101DF000D76E480ED66EF28AF28E726B736B746B6E
:101E0000756B1200DCDB8FDBEFCF10F0600EE76E3E
:101E10001018E8AE02D0103403D0E750D880105428
:101E20000FE281DBEFCF11F07B0EE76E1118E8AE09
:101E300002D0E73402D0E750115C02E2570E1CD00A
:101E400072DBEFCF10F0300EE76E1018E8AE02D064
:101E5000103403D0E750D880105413E264DBEFCF86
:101E600011F03A0EE76E1118E8AE02D0E73402D056
:101E7000E750115C06E2300E106E55DB1050EF5E3D
:101E800025D074EC13F0300803E14DDBEF6A1ED06F
:101E900074EC13F00D0805E146DB240EEF6E8B9613
:101EA00015D074EC13F0200803E13DDB250E0DD0B6
:101EB00074EC13F05B0803E136DB260E06D074ECFD
:101EC00013F05D0803E12FDB270EEF6E7DD377DB88
:101ED000BEDB98DFE552E552BADBF8D9E552E552B0
:101EE00073D36DDB040EE12610681168010E126ECB
:101EF000136AC0DBD8901332123211321032CADBAF
:101F000067DB040EE15C02E2E16AE552E16E5CD35C
:101F100056DB050EE126106AF00E116E1268030EF4
:101F2000136EA8DB110ED890133212321132103218
:101F3000E806F9E1FFDA010E1016116A126A136A57
:101F4000105011101210131005E0C9DBEE52010EF3
:101F5000EE1603D0C4DBEE52EE6AEE6AEE6A38DBB0
:101F6000050EE15C02E2E16AE552E16E2DD327DB6A
:101F70004F0EE126D950410FE96EDACFEAFF300E5D
:101F8000EE6E780EEE6EEE6AD950410FE66E000EE0
:101F9000DA20E66EBAEC14F0E552E552440EF3CFC7
:101FA000DBFF000188513EE0840EE96E000EEA6E10
:101FB000EE50895D106EEE508A59116EEE508B59BD
:101FC000126EEE508C59136ED880320E1054000EE3
:101FD0001154000E1254000E135424E2190EE76E31
:101FE0008819E8AE02D0883503D0E750D8808855EC
:101FF00013E27CC080F07DC081F07EC082F07FC0A3
:1020000083F0010E1F0B08E00001D8908333823368
:1020100081338033E806F9E100017C6B7D6B7E6BD8
:102020007F6B886B805181118211831101E139D15D
:10203000F5DA57DFE552E552E552E552470E06C0A4
:10204000DBFF480E07C0DBFF490E08C0DBFF4A0E6E
:1020500009C0DBFFE3DA5CDFE552E552E552E55209
:102060004B0E06C0DBFF4C0E07C0DBFF4D0E08C059
:10207000DBFF4E0E09C0DBFF400EDB6ADBCF10F04A
:10208000440EDB50E76E1018E8AE02D0E73402D001
:10209000E750105C0DE2D950410F126E19DB14BEEF
:1020A000156804DB14DFE552E552400EDB2AE6D763
:1020B000400EE66EE66AE66AD9CFE6FFDACFE6FFC3
:1020C000A0EC14F0106E050EE15E1050400EDB6ABD
:1020D000DBCF10F0070EE76E1018E8AE02D0E73441
:1020E00002D0E750105C31E2A2DA7DDADBCF12F0E9
:1020F000136A12BE136882DA14C0EFFF040E1F0BBE
:1021000096DA07E0D8901732163215321432E80604
:10211000F9E169DADB28126E136A12BE13686EDA0F
:1021200014C0EFFF000181C080F082C081F083C045
:1021300082F0836B020E106E400EDBCFE7FF105073
:10214000E726400EE7CFDBFFC3D7070E8EDADBCFE3
:1021500010F0FF0EE76E1018E8AE02D0103403D076
:10216000E750D880105406E220DA14BE15680ADA67
:10217000DB06EDD7200EE9D95B0EE7D909DA640E4C
:1021800018DA020E06C0DBFF03DA640E12DA010E63
:1021900002C0DBFF0A0E106E0E6E010EDBCF09F0DF
:1021A000ECEC14F0010E09C0DBFFF2D90A0E01DAE3
:1021B0000250DF6E020E59DADBCF10F0FF0EE76E31
:1021C0001018E8AE02D0103403D0E750D880105475
:1021D00006E2EBD914BE1568D5D9DB06EDD75D0E46
:1021E000B4D9200EB2D9050E40DADBCF10F010348E
:1021F0003DE2470EDBCF06F0480EDBCF07F0490E7D
:10220000DBCF08F04A0EDBCF09F00A0ED2D902501C
:10221000E66ED9CF10F0DACF11F0400EDBCF12F01E
:10222000136A12BE1368EAD9E552E750EF6ED9502F
:10223000470FE96EDACFEAFF0A0E0B6E0C6A0D6AE1
:102240000E6AEECF06F0EECF07F0EECF08F0EFCF3C
:1022500009F0C8EC14F009C0EDFF08C0EDFF07C09D
:10226000EDFF06C0EFFF400EDB06BFD7400EDB6A76
:10227000DBCF10F0060EE76E1018E8AE02D0E734A0
:1022800002D0E750105C06E290D914BE15687AD9E6
:10229000DB2AEED70D0E59D90001806B816B826B62
:1022A000836B4F0EE15C02E2E16AE552E16E8CD194
:1022B0005EDE200E0001E76E8F19E8AE02D0E73433
:1022C00002D0E7508F5D01E36450120078D902011B
:1022D000316B326B28D9EFCFE9FFEA6AE9BEEA68D1
:1022E000BD0EE926000EEA22EFCF33F237D9000106
:1022F0007251731102E1000E03D0B0D901E0010E5A
:102300000009F5E10201316B326B336B27D9000113
:102310007251731102E1000E03D0A0D901E0010E49
:102320000009F5E151D18050080B01E0010E0001D8
:10233000605D07E08050080B01E0010E606F80A631
:10234000010C000C8050080B01E0010E0001615DE2
:1023500007E08050080B01E0010E616F80A6010CC0
:10236000000C0001E551E61104E1100EE56F270EA7
:10237000E66FE507000EE65B64A207D0E551E611C3
:102380002EE18B708BB013D027D000018F5102E16A
:102390008B9022D08F0502E18B8009D0020E8F5DD9
:1023A00002E18B8019D0040E8F5D03E18B908B824C
:1023B0001200100E8F5D06E10001E551E6110FE1FC
:1023C0008B700AD0200E8F5D0AE10001E551E61105
:1023D00006E18B708BA002D08B9212008B821200D0
:1023E0001200120012001200EBEF13F012001E0E8A
:1023F000E66E010EE66EC5EC0CF0E552E552010EFC
:10240000E66E300EE66E020EE66EE66A010E58D9F2
:10241000F3CF74F0F4CF75F012000001AE051EE1A9
:102420000001AF051BE1DDDF64920001AF6B00012D
:10243000100E8D6F0E0E8E6F8D07000E8E5B8D5100
:102440008E11FAE16484080E8D6F070E8E6F8D0772
:10245000000E8E5B8D518E11FAE164941200AFD89C
:10246000FD0EDBCF08F0FE0EDBCF09F0050E0818DD
:1024700001E1095036E0E868081802E17F0E09180A
:102480002FE0030E081801E1095028E0020E081899
:1024900001E1095021E0010E081801E109501AE09C
:1024A000740E081801E1095013E0750E081801E1D7
:1024B00009500CE0730E081801E1095005E0720E96
:1024C00008180FE109500DD08DDF0BD089DF09D03E
:1024D00088DF07D08CDF05D089DF03D085DF01D00E
:1024E00082DF010E71D00001280EA56F020EA66FCB
:1024F000080EA86FA96B020EAA6F250EAB6FA78FEF
:102500001200020128A103D08B808B8202D08B9015
:102510008B920001776BE00E786F220E796F020EBE
:102520007A6F7B6B1200FD0EDBCFE9FFFE0EDBCF77
:10253000EAFF1200AFD8D3D8EECF10F0EECF11F0F3
:10254000EECF12F0EFCF13F01200DF6ED9CFE6FF1F
:10255000DACFE6FFBCDCE552E5521200346B356B96
:10256000366B376B386B080EE66E310EE66E020E78
:10257000E66E010EE66EA4D8F3CF72F0F4CF73F0DE
:1025800069EF08F093D8A2DEE552E552400E120042
:102590004B0EDBCF06F04C0EDBCF07F04D0EDBCF42
:1025A00008F04E0EDBCF09F01200D9CF12F068EF21
:1025B00013F00B6E0C6A0D6A0E6AC8EF14F0D9CFD7
:1025C000E6FFE1CFD9FF1200E552E7CFD9FF1200B5
:1025D000DECF06F0DECF07F0DECF08F0DDCF09F06A
:1025E000DD52DD5212000F0E1416156A166A176AB4
:1025F000D9CF10F0DACF11F0400E12001050122493
:10260000E96E11501320EA6E120089C084F08AC06E
:1026100085F08BC086F08CC087F0120080C0E6FF8A
:1026200081C0E6FF82C0E6FF83C0E6FF120080C0E3
:1026300014F081C015F082C016F083C017F01200AC
:10264000882BD8907C377D377E377F371200FD0E80
:10265000DBCFE6FFFE0EDBCFE6FF120072C0E9FF24
:1026600073C0EAFFEF50800B1200F36E400EF3CF01
:10267000DBFF1200D950FB0FE96EFF0EDA20EA6E85
:10268000EE501016EE501116EE501216EE501316B4
:102690009AEF12F010C0DFFF010E11C0DBFF020E37
:1026A00012C0DBFF030E13C0DBFF12001250142414
:1026B000106E13501520116E10C0E6FFE66E12006A
:1026C000E66EF5EC0CF0106E050EE15E1050120097
:1026D000DACF13F0400EDBCF14F0156A1200D9CF19
:0E26E000E9FFDACFEAFF12001EDFEF50120012
:0226EE001201D7
:1026F000000200000008D80455000100010200019A
:1027000009022900010100C032090400000203018E
:102710000100092111010001223F00070581030882
:102720000001070501030800010403090434034DF7
:10273000006900630072006F006300680069007048
:1027400000200054006500630068006E006F006C9C
:10275000006F0067007900200049006E0063002EC2
:10276000002E034B006500790062006F006100726B
:102770000064002000440065006D006F0000000050
:102780000000000000000000000000000000000544
:10279000010906A101050719E029E71500250175C2
:1027A000019508810295017508810395057501055C
:1027B0000819012905910295017503910395067584
:1027C00008150025650507190029658100C0002747
:0627D00029272D276127D7
:0A27D600020120511F0B010801E071
:1027E0001200245101E01200060E215D1EE123516A
:1027F000230A1BE0010A0CE0030A17E1000190051F
:1028000014E10001120EA06F270EA16F090E09D06E
:10281000000190050AE100018F0EA06F270EA16F45
:102820003F0EA36FA46BC00EA26F02012051600B7C
:10283000E842E842E842E842E842010801E01200CA
:1028400021510B0A28E0080A1BE0090A13E0080AD4
:1028500007E00B0A03E0080A23E0120073EF12F00E
:102860000001F10EA06F000EA16F010EA36FA46B0B
:10287000C10E0FD00001800EA26F23C2F1F0120032
:102880000001F20EA06F000EA16F010EA36FA46BEA
:10289000810EA26F12000001800EA26F22C2F2F020
:0228A000120024
:0E28A2001E0EF66E100EF76E000EF86E0001A0
:1028B0000900F550EC6F0900F550ED6F03E1EC678E
:1028C00001D03DD00900F550E76F0900F550E86FE1
:1028D0000900F550E96F09000900F550E96E09009B
:1028E000F550EA6E090009000900F550EA6F090089
:1028F000F550EB6F09000900F6CFEEF0F7CFEFF0DF
:10290000F8CFF0F0E7C0F6FFE8C0F7FFE9C0F8FF46
:102910000001EA5302E1EB5307E00900F550EE6EC7
:10292000EA07F8E2EB07F9D7EEC0F6FFEFC0F7FFD2
:10293000F0C0F8FF0001EC07000EED5BBFD71200FE
:10294000FE0EE3CFE9FFFF0EE3CFEAFFE9CFF3FF8F
:10295000EACFF4FFFB0EE35003E1FC0EE35009E085
:10296000FB0EE30602E2FC0EE306FD0EE350EE6E04
:10297000F1D71200FE0EE3CFE9FFFF0EE3CFEAFF2F
:10298000F36AF46AEE5203E0F34AF42AFBD712002A
:10299000056A046A036A026A200EE76ED89006365A
:1029A00007360836093602360336043605360B502C
:1029B000025C0C5003580D5004580E50055809E3A2
:1029C0000B50025E0C50035A0D50045A0E50055A1B
:0829D000062AE72EE4D71200ED
:0829D800006A0EAEF2EF14F0EC
:1029E0000E6C001E09AEF7EF14F0096C001E24EC0B
:1029F00015F009BE01EF15F000AE000C096C056C76
:0C2A0000000C00BEFEEF14F00188FF0C7B
:042A0C00000EF36E57
:102A100000EE00F0030E01D81200EA6002D0EE6A68
:0C2A2000FCD7F350E9601200EE6AFCD70E
:042A2C0011EE00F0B7
:102A300021EE00F0F86A019C51EC14F003EC08F070
:082A4000CFEC0EF0FBD71200F1
:082A4800056A080EE76ED89044
:102A5000093605360E50055C02E3056E092AE72E9D
:042A6000F7D7120092
:0C2A6400271E1F20212223242526040504
:102A7000060708090A0B0C0D0E0F1011121314157E
:0E2A8000161718191A1B1C1D282C2F300000C9
:020000040030CA
:0100000000FF
:0100010032CC
:0100020021DC
:010003001EDE
:0100050000FA
:010006008178
:0100080003F4
:01000900C036
:01000A0003F2
:01000B00E014
:01000C0003F0
:01000D0040B2
:00000001FF
