:020000040000FA
:0600000040EF18F01200B1
:0600080004EF08F01200F5
:060018000CEF08F01200DD
:0610000040EF18F01200A1
:021006001200D6
:061008004FEF11F0120091
:06101800F1EF11F01200DF
:02101E000100CF
:0C1020009C3000008E0000002900000041
:04102C00D9CFE6FF33
:10103000E1CFD9FFE652A0940F015F6B626A536B58
:10104000010EE66EE66AE66A540EE66E0F0EE66E76
:1010500016EC18F0006E050EE15E0050160E616E83
:101060000F019F0E5B6F7B0E606EDF6ADF50006EBC
:10107000016A080E005C000E015810E2DF50040DFA
:10108000F3CFE9FFF4CFEAFF000EE926020EEA22D1
:10109000EE6AEE6AEE6AEE6ADF2AE8D7648C0F0128
:1010A0005C6B6498649C62A607D062960001736BC7
:1010B000786B796B7A6BF7D70001010E8A6F8B6FB3
:1010C0008C6B8D6B806BDF6A020EDF5C26E2EA6A56
:1010D000DF34FE0BEA36E96E6B0EE926000EEA22DB
:1010E000EE6AED6AEA6ADF34FE0BEA36E96E670EF5
:1010F000E926000EEA22EE6AED6ADF50EA6A840F02
:10110000E96E000EEA22EF6ADF50EA6A860FE96EA6
:10111000000EEA22EF6ADF2AD7D70001080E6B6FB4
:10112000020E6C6F0F01160E536F0201200E026F3C
:10113000020E036F080E016F840E006F0001616BD9
:10114000606BE552E552E7CFD9FF1200D9CFE6FF39
:10115000E1CFD9FFE6520001605110E1646A606A94
:10116000160E616E0F019F0E5B6F7B0E606E64B694
:1011700002D06486FCD70001010E606F600508E1B3
:1011800064BA06D0626A606A60806088020E606F2E
:101190006250040B05E06050040B02E06294C7D873
:1011A00064B257D06250010B08E06050010B05E0BB
:1011B0003DDF0001040E606F62906250100B05E08D
:1011C0006050100B02E09ED8629862AC19D060ACFF
:1011D0000FD0010EE66EE66A000EE66EE66A730E4A
:1011E000E66EE66A83EC16F0006E060EE15E0050D5
:1011F000629C0001885101E08807885101E15BDBB6
:101200006250200B04E06050200B01E061D8625076
:10121000020B14E06050020B11E0010EE66EE66A6C
:10122000000EE66EE66AE6687F0EE66E83EC16F068
:10123000006E060EE15E00500F015F6B040E0001B0
:10124000E76E6019E8AE02D0E73402D0E750605D87
:1012500002E2A19438D060A635D0DF6A040EDF5CCC
:1012600031E262A62FD063CF81F000018151780B6B
:10127000E842E842E842826F629681B506D0825128
:10128000EA6A860FE96E000E05D08251EA6A840F81
:10129000E96E000EEA22EF70825102E15FD810D0B1
:1012A000000EE66EE66A810EE66E000EE66E720EC7
:1012B000E66EE66A83EC16F0006E060EE15E005004
:1012C000DF2ACCD7A194E552E552E7CFD9FF12002F
:1012D0000F0153A115D063C0E9FF64C0EAFFEF50CE
:1012E00080080DE16BC0E9FF6CC0EAFFEF50840895
:1012F00006E163C0E9FF64C0EAFF8C0EEF6E539114
:10130000629A12006084629864820001010E806F0C
:10131000000EE66EE66AE66EE66A750EE66EE66A50
:1013200083EC16F0006E060EE15E00501200000124
:10133000806B000EE66EE66AE66EE66A740EE66E96
:10134000E66A83EC16F0006E060EE15E00506492D1
:10135000609462A402D06294FCD71200D9CFE6FF59
:10136000E1CFD9FFE65200012D0E886FFD0E8115E9
:1013700053E17E0E8115E8407F0B040DF3CF63F03F
:10138000F4CF64F0000E6327020E642363C065F09F
:1013900064C066F0657563C0E9FF64C0EAFFEF50A2
:1013A0003C0BE842E8420D0835E1DF6A080EDF5CDD
:1013B00023E263C0E9FF64C0EAFF020EE926000EE3
:1013C000EA22EE50EFCFEAFFE96EEF50E66EDF5013
:1013D000EA6A200FE96E020EEA22E552E750EF6E4C
:1013E00063C0E9FF64C0EAFF020EE926000EEA22AC
:1013F000EE2AEF22DF2ADAD763C0E9FF64C0EAFFF2
:10140000020EE926000EEA22200EEE6E020EED6EAE
:101410000DD807D03AD805D0FD0E8115040801E19A
:1014200059D8E552E552E7CFD9FF120000016F6BA2
:10143000896B8C6B8D6B836B706B6BC0E9FF6CC0C1
:10144000EAFFEF9E6B756BC0E9FF6CC0EAFFEF9E91
:101450006B7565C0E9FF66C0EAFFEF9E736B746B46
:10146000756B786B796B7A6B8FD8000EE66EE66AD7
:10147000E66EE66A030EE66EE66A83EC16F0006E30
:10148000060EE15E0050A8EF0DF0020E0001705D47
:1014900002E168EF0EF0706B83511AE165C0E9FF5D
:1014A00066C0EAFFEE52080EEF6E65C0E9FF66C047
:1014B000EAFF020EE926000EEA22200EEE6E020E70
:1014C000ED6E65C0E9FF66C0EAFF8C0EEF6E12009C
:1014D000836B1200D9CFE6FFE1CFD9FFE6526BC094
:1014E000E9FF6CC0EAFFEF50400B01E0010EDF6E38
:1014F00000016B75080E605D0BE122C25CFF0F01FD
:101500005C5103E00001100E02D00001040E606F78
:10151000700526E16BC0E9FF6CC0EAFF020EE92608
:10152000000EEA22280EEE6E020EED6E72DB020E47
:1015300000016F5D06E16BC0E9FF6CC0EAFF840E3D
:101540000DD0DF5006E16BC0E9FF6CC0EAFFC80EAA
:1015500005D06BC0E9FF6CC0EAFF880EEF6E0FD0BC
:1015600078AF0CD07B517C1107E005D07CC0FAFF2E
:1015700000017B51F96EFADF0001789F706BE55234
:10158000E552E7CFD9FF120002012051600BE8427B
:10159000E842E842E842E842000901E01200215135
:1015A0000C0A50E00B0A3FE00C0A31E0010A22E08D
:1015B0000B0A1EE0020A1CE0030A18E0080A10E009
:1015C000010A0CE00F0A08E0030A01E01200000122
:1015D000738F080E606F1200EAEF0CF007EF0FF048
:1015E0000001610E716F000E726F0CD047EF0DF0AD
:1015F00023EF0BF024510001716F726B620E7127A3
:10160000000E72237381010E746F738F120000013C
:10161000738F02012451EA6A620FE96E000EEA221A
:1016200022C2EFFF1200000EE66EE66AE66EE66A80
:10163000020EE66EE66A83EC16F0006E060EE15EC0
:10164000005012001200D9CFE6FFE1CFD9FF050EFE
:10165000E1260201220510E120511F0B00090CE1D7
:101660000001738F030E0201215D04E10001010EF0
:101670007F6F02D000017F6B0201225101E011D186
:1016800020511F0B020801E00CD124510F0B00095F
:1016900001E107D124510F0B010801E202D1200E14
:1016A0000001605D01E0FDD0738F020124BF16D000
:1016B00024510F0BE96EEA6AD890E936EA36670ED4
:1016C000E926000EEA22EECFDEFFEDCFDDFF24514A
:1016D0000F0BEA6A860FE96E000E15D024510F0B2E
:1016E000E96EEA6AD890E936EA366B0EE926000E12
:1016F000EA22EECFDEFFEDCFDDFF24510F0BEA6AC9
:10170000840FE96E000EEA22020EEFCFDBFFD95004
:10171000020FE96EDACFEAFFEF50010B03E1000E92
:10172000DF9401D0DF8424BF0BD024510F0BE96E6E
:10173000EA6AD890E936EA36670EE926000E0AD042
:1017400024510F0BE96EEA6AD890E936EA366B0E3F
:10175000E926000EEA22DECFEEFFDDCFEDFF030E1D
:10176000215D20E1DECFE9FFDDCFEAFFEF50800B06
:1017700011E024BF07D024510F0BEA6A860FE96EEF
:10178000000E06D024510F0BEA6A840FE96E000E9A
:10179000EA22EF82840EDECFE9FFDDCFEAFFE850D8
:1017A000EF127FD0DF74DECFE9FFDDCFEAFFEF502D
:1017B000800B1BE0DECFE9FFDDCFEAFFEF9EDECF3F
:1017C000E9FFDDCFEAFFEF8C020EE66EE66ADECFC0
:1017D000E6FFDDCFE6FF050EE66EE66A83EC16F067
:1017E000006E060EE15E005005D0DECFE9FFDDCFD2
:1017F000EAFFEF8CDF74D950020FE96EDACFEAFF0F
:10180000EF50020B07E1DECFE9FFDDCFEAFFEF503B
:10181000800B2BE0020124BF07D024510F0BEA6A92
:10182000860FE96E000E06D024510F0BEA6A840F72
:10183000E96E000EEA22EF923B0E006EDECFE9FF6A
:10184000DDCFEAFFE850EF16020EE66EE66ADECF65
:10185000E6FFDDCFE6FF050EE66EE66A83EC16F0E6
:10186000006E060EE15E005007D03B0EDECFE9FFB2
:10187000DDCFEAFFE850EF16020124510F0B016A99
:10188000530F006E0F0E0122030E00C0DBFF040E8B
:1018900001C0DBFF030EDBCFE9FF040EDBCFEAFF65
:1018A000EF90050EE15C02E2E16AE552E16EE5527D
:1018B000E7CFD9FF120000018A514DE1010E8A6F76
:1018C0008B5149E1010E8B6F020E705D0DE16BC013
:1018D000E9FF6CC0EAFFEE52EF6A6BC0E9FF6CC033
:1018E000EAFFC80EEF6E1200700535E1836B63C02E
:1018F000E9FF64C0EAFFEE52080EEF6E63C0E9FF35
:1019000064C0EAFF020EE926000EEA22200EEE6E07
:10191000020EED6E63C0E9FF64C0EAFF840EEF6E55
:10192000010E836F65C0E9FF66C0EAFFEE52080E44
:10193000EF6E65C0E9FF66C0EAFF020EE926000E01
:10194000EA22200EEE6E020EED6E65C0E9FF66C063
:10195000EAFF800EEF6E120000018C6B8D6B020EA1
:10196000705D18E165C0E9FF66C0EAFFEE52080E3F
:10197000EF6E65C0E9FF66C0EAFF020EE926000EC1
:10198000EA22280EEE6E020EED6E65C0E9FF66C01B
:10199000EAFF1DD074510201265D0001755102015C
:1019A000275904E226C274F027C275F032D96BC001
:1019B000E9FF6CC0EAFF020EE926000EEA22280EBB
:1019C000EE6E020EED6E6BC0E9FF6CC0EAFFC80E52
:1019D000EF6E1200800E0201205D58E10001C00E82
:1019E000736F02012351030A2FE0010A09E0030A81
:1019F0004BE10001DA0E716F2D0E726F120E3ED0A8
:101A00002251F66EF76AD890F636F736BA0EF626F9
:101A10002E0EF7220900F5CF71F00A00F5CF72F013
:101A2000020E0001F76A7125F66E7251F722080066
:101A3000F5CF74F0030EF76A7125F66E7251F72236
:101A40000800F5CF75F01200030E225D1AE2225154
:101A5000F66EF76AD890F636F736BC0EF6262E0EDE
:101A6000F7220900F5CF71F00A00F5CF72F071C0CE
:101A7000F6FF72C0F7FF0800F5500001746F756B38
:101A800012000001736B12000001736B1200D9CFBA
:101A9000E6FFE1CFD9FF020EE1260201286B296B98
:101AA00020511F0B020A11E0030A0CE0010A3CE17D
:101AB0000001738F0201288100017F0535E10201D9
:101AC000288332D00001738F2FD00001738F020161
:101AD00024BF0BD024510F0BE96EEA6AD890E93687
:101AE000EA36670EE926000E0AD024510F0BE96E84
:101AF000EA6AD890E936EA366B0EE926000EEA2249
:101B0000EECFDEFFEDCFDDFFDECFE9FFDDCFEAFF79
:101B1000EF50800B09E0DECFE9FFDDCFEAFFEF50A9
:101B2000040B02E0010E286F000173AF07D0280EEE
:101B3000716F020E726F7381020E746F020EE15CA0
:101B400002E2E16AE552E16EE552E7CFD9FF120009
:101B50006498000173BF2BD078AF09D0020E706F6C
:101B60008D5101E1F9DE00018B6B8A6B120065C0BB
:101B7000E9FF66C0EAFFEE52080EEF6E65C0E9FFAE
:101B800066C0EAFF020EE926000EEA22200EEE6E83
:101B9000020EED6E65C0E9FF66C0EAFF8C0EEF6EC7
:101BA0006BC0E9FF6CC0EAFF840EEF6E1200020109
:101BB00020AF0DD00001010E706F8C5101E1CCDE21
:101BC00000018B6B8A6B895123E15BEF0CF0000104
:101BD000020E706F65C0E9FF66C0EAFFEE52080EA4
:101BE000EF6E65C0E9FF66C0EAFF020EE926000E4F
:101BF000EA22200EEE6E020EED6E65C0E9FF66C0B1
:101C0000EAFF840EEF6E8B6B8A6B895101E153DE24
:101C10001200D9CFE6FFE1CFD9FFE652080EDF6E02
:101C20000001745D000E75590AE274C0DFFF6F5148
:101C300002E1010E03D06F0502E1020E6F6FDF506B
:101C4000016AE850745D746F01507559756F6BC00F
:101C5000E9FF6CC0EAFFEE52DFCFEFFF280E7D6F89
:101C6000020E7E6F73B118D0DF502DE071C0F6FF09
:101C700072C0F7FF712B000E72230800F550E66E5C
:101C80007DC0E9FF7EC0EAFF7D2B000E7E23E5527A
:101C9000E750EF6EDF06E8D7DF5015E071C0E9FFCF
:101CA00072C0EAFF712B000E7223EF50E66E7DC00A
:101CB000E9FF7EC0EAFF7D2B000E7E23E552E75050
:101CC000EF6EDF06E9D7E552E552E7CFD9FF120004
:101CD000D9CFE6FFE1CFD9FF020EE12663C0E9FFCD
:101CE00064C0EAFFEE52EFCFDFFFDFCF00F000501D
:101CF0000001795D000E7A5902E279C0DFFFDF5002
:101D0000006E016AE850795D796F01507A597A6FF7
:101D1000010EDB6ADF50F36E010EDBCFF4FFF350F0
:101D2000F45C16E2010EDB50EA6A280FE96E020E3F
:101D3000EA22EF50E66E76C0E9FF77C0EAFF762B25
:101D4000000E7723E552E750EF6E010EDB2AE2D753
:101D5000000ED8807955000E7A5527E265C0E9FF5C
:101D600066C0EAFFEE52080EEF6E65C0E9FF66C07E
:101D7000EAFF020EE926000EEA22280EEE6E020E9F
:101D8000ED6E63C0E9FF64C0EAFFEF50400B06E16F
:101D900065C0E9FF66C0EAFFC80E05D065C0E9FF6F
:101DA00066C0EAFF880EEF6E28D065C0E9FF66C006
:101DB000EAFFEE52080EEF6E65C0E9FF66C0EAFF6B
:101DC000020EE926000EEA22200EEE6E020EED6EE5
:101DD00065C0E9FF66C0EAFF840EEF6E7B517C119F
:101DE00007E005D07CC0FAFF00017B51F96EFADFF5
:101DF0000001789F895101E15EDD020EE15C02E2A3
:101E0000E16AE552E16EE552E7CFD9FF1200D9CF82
:101E1000E6FFE1CFD9FFE6520001738F010EE66EB7
:101E2000E66AE66A540EE66E0F0EE66E16EC18F0E1
:101E3000006E050EE15E0050DF6ADF50006E016A41
:101E4000080E005C000E015810E2DF50040DF3CFC5
:101E5000E9FFF4CFEAFF000EE926020EEA22EE6A5D
:101E6000EE6AEE6AEE6ADF2AE8D7648CDF6A020E59
:101E7000DF5C10E2DF50EA6A840FE96E000EEA22AE
:101E8000EF6ADF50EA6A860FE96E000EEA22EF6A17
:101E9000DF2AEDD7010EE66EE66AE66A620EE66EAE
:101EA000000EE66E16EC18F0006E050EE15E0050B6
:101EB000649C0001080E6B6F020E6C6F000E636F66
:101EC000020E646F63C065F0666F22C261F06151FB
:101ED00002E1100E12D0010EE66EE66A610EE66EA9
:101EE000000EE66E010EE66EE66A83EC16F0006EFA
:101EF000060EE15E00500001200E606FE552E552D3
:101F0000E7CFD9FF1200D9CFE6FFE1CFD9FF020E0C
:101F1000E126000EDE6E020EDD6EFD0EDB50E824C3
:101F2000026EFE0EDB50040DF3500224040DF4CFBC
:101F300001F0D9CFE9FFDACFEAFFF350EE260150E6
:101F4000ED22DECFE9FFDDCFEAFFEF9EFD0EDB5095
:101F50000AE1FE0EEA6ADB34FE0BEA36E96E670E32
:101F6000E926000E09D0FE0EEA6ADB34FE0BEA36E3
:101F7000E96E6B0EE926000EEA22DECFEEFFDDCF22
:101F8000EDFFDECFE9FFDDCFEAFFEF9CDECFE9FF1B
:101F9000DDCFEAFF040EE926000EEA22EF8C020EE6
:101FA000E15C02E2E16AE552E16EE552E7CFD9FF7A
:101FB0001200D9CFE6FFE1CFD9FF020EE126FD0ED8
:101FC000DBA407D0E66AFE0EDBCFE6FF9CDFE5521E
:101FD000E552FD0EDBA208D0010EE66EFE0EDBCF51
:101FE000E6FF91DFE552E552FE0EDB50016A530F2A
:101FF000006E0F0E012200C0DEFF01C0DDFFDECF4C
:10200000E9FFDDCFEAFFFD0EDBCFEFFF020EE15C63
:1020100002E2E16AE552E16EE552E7CFD9FF120034
:10202000D9CFE6FFE1CFD9FF020EE126FE0EDB504D
:1020300020E165C0E9FF66C0EAFFEE52080EEF6ED0
:1020400065C0E9FF66C0EAFF020EE926000EEA223B
:10205000200EEE6E020EED6E65C0E9FF66C0EAFF6F
:102060008C0EEF6E6BC0E9FF6CC0EAFF840EEF6E62
:102070003BD0FD0EDB50E824026EFE0EDB50040D5B
:10208000F3500224040DF3CF00F0F4CF01F0000E62
:102090000026020E012200C0DEFF01C0DDFF840E1B
:1020A000DECFE9FFDDCFEAFFE850EF12FD0EDB5097
:1020B000E824026EFE0EDB50040DF3500224010FE3
:1020C000040DF3CF00F0F4CF01F0000E0026020E55
:1020D000012200C0DEFF01C0DDFF840EDECFE9FF7C
:1020E000DDCFEAFFE850EF12020EE15C02E2E16AA6
:1020F000E552E16EE552E7CFD9FF1200D9CFE6FFF6
:10210000E1CFD9FF020EE126FD0EDB500AE0FE0E04
:10211000EA6ADB34FE0BEA36E96E6B0EE926000E46
:1021200009D0FE0EEA6ADB34FE0BEA36E96E670E72
:10213000E926000EEA22EECFDEFFEDCFDDFFD9CF9C
:10214000E9FFDACFEAFFEE50ED1003E1F36AF46A3B
:1021500044D0DECFE9FFDDCFEAFF020EE926000E14
:10216000EA22FB0EDBCFEEFFFC0EDBCFEDFFDECF76
:10217000E9FFDDCFEAFFEE52FA0EDBCFEFFF400EB4
:10218000DECFE9FFDDCFEAFFE850EF16880EDECFA5
:10219000E9FFDDCFEAFFE850EF12FD0EDB500AE069
:1021A000FE0EEA6ADB34FE0BEA36E96E6B0EE926B8
:1021B000000E09D0FE0EEA6ADB34FE0BEA36E96E49
:1021C000670EE926000EEA22EF74DECF00F0DDCFC5
:1021D00001F000C0F3FF01C0F4FF020EE15C02E277
:1021E000E16AE552E16EE552E7CFD9FF1200D9CF9F
:1021F000E6FFE1CFD9FF64A84ED0FE0EEA6ADB34D9
:10220000FE0BEA36E96E6B0EE926000EEA22EE506E
:10221000EFCFEAFFE96E400EEE16EE6AEE6AEE6A66
:10222000FE0EEA6ADB34FE0BEA36E96E6B0EE92637
:10223000000EEA22EE50EFCFEAFFE96EEE7CFE0ED2
:10224000EA6ADB34FE0BEA36E96E6B0EE926000E15
:10225000EA22EF74400E006EFE0EEA6ADB34FE0BDB
:10226000EA36E96E6B0EE926000EEA22EE50EFCF59
:10227000EAFFE96E0050EF16FE0EEA6ADB34FE0B51
:10228000EA36E96E6B0EE926000EEA22EE50EFCF39
:0E229000EAFFE96EEF7CE552E7CFD9FF1200BE
:02229E00DACF95
:1022A000E4FFE652F250200B0EE0F250040B0BE07C
:1022B000F294F40ED76E480ED66E0001D02B000EAD
:1022C000D123D223D323F250100B41E0F250020B62
:1022D0003EE00001CF2B1F0EE76ECF19E8AE02D013
:1022E000CF3503D0E750D880CF5523E2176A186A5C
:1022F000196A800E1A6EC7511716C8511816C9519F
:102300001916CA511A161F0ED8901A3219321832DD
:102310001732E806F9E117500001C3131850C4132F
:102320001950C5131A50C613D890C337C437C537D0
:10233000C637D890C737C837C937CA37D0C0CBF0EF
:10234000D1C0CCF0D2C0CDF0D3C0CEF0F292F050DC
:10235000100B43E0F050020B40E08B860001CF2BC6
:102360001F0EE76ECF19E8AE02D0CF3503D0E7508D
:10237000D880CF5523E2176A186A196A800E1A6E40
:10238000C7511716C8511816C9511916CA511A162D
:102390001F0ED8901A32193218321732E806F9E1B6
:1023A00017500001C3131850C4131950C5131A5005
:1023B000C613D890C337C437C537C637C781D8903E
:1023C000C737C837C937CA37D0C0CBF0D1C0CCF077
:1023D000D2C0CDF0D3C0CEF0F092E552E5CFDAFF17
:1023E0001100D8CFE4FFE0CFE4FFE46EDACFE4FFE2
:1023F000E652E552E5CFDAFFE550E5CFE0FFE5CF65
:10240000D8FF100004D8A6EC08F0B6DBFCD70F0EFE
:10241000C11202D816EF08F00001D06BD16BD26B5D
:10242000D36BCB6BCC6BCD6BCE6BC36BC46BC56B03
:10243000C66BC76BC86BC96BCA6BCF6BF50E8B16BF
:1024400094168B827E6A94809484F19CF288F19831
:10245000F088F292F092810ED56EF294F40ED76E5F
:10246000480ED66EF28AF28EB96BBA6BBB6BBC6B40
:102470001200D9CFE6FFE1CFD9FFFD0EDBCFE9FF98
:10248000FE0EDBCFEAFFEFCF00F0600EE76E001824
:10249000E8AE02D0003403D0E750D880005414E2F4
:1024A000FD0EDBCFE9FFFE0EDBCFEAFFEFCF01F041
:1024B0007B0EE76E0118E8AE02D0E73402D0E75099
:1024C000015C02E2570E26D0FD0EDBCFE9FFFE0EC7
:1024D000DBCFEAFFEFCF00F0300EE76E0018E8AE7A
:1024E00002D0003403D0E750D88000541DE2FD0E26
:1024F000DBCFE9FFFE0EDBCFEAFFEFCF01F03A0EB4
:10250000E76E0118E8AE02D0E73402D0E750015C74
:102510000BE2300E006EFD0EDBCFE9FFFE0EDBCFCF
:10252000EAFF0050EF5E68D0FD0EDBCFE9FFFE0E44
:10253000DBCFEAFFEF50300808E1FD0EDBCFE9FF0B
:10254000FE0EDBCFEAFFEF6A57D0FD0EDBCFE9FFCF
:10255000FE0EDBCFEAFFEF500D080AE1FD0EDBCFE8
:10256000E9FFFE0EDBCFEAFF240EEF6E8B9644D020
:10257000FD0EDBCFE9FFFE0EDBCFEAFFEF502008B8
:1025800008E1FD0EDBCFE9FFFE0EDBCFEAFF250EF3
:1025900032D0FD0EDBCFE9FFFE0EDBCFEAFFEF50BE
:1025A0005B0808E1FD0EDBCFE9FFFE0EDBCFEAFFA3
:1025B000260E21D0FD0EDBCFE9FFFE0EDBCFEAFFBA
:1025C000EF505D0808E1FD0EDBCFE9FFFE0EDBCF2B
:1025D000EAFF270E10D0FD0EDBCFE9FFFE0EDBCFAA
:1025E000EAFFEF50080808E1FD0EDBCFE9FFFE0E21
:1025F000DBCFEAFF280EEF6EE552E7CFD9FF1200DE
:10260000D9CFE6FFE1CFD9FFFD0EDBCFE6FFFE0E0F
:10261000DBCFE6FF2EDFE552E552FD0EDBCFE6FF16
:10262000FE0EDBCFE6FFB6DAE552E552E552E7CF24
:10263000D9FF1200D9CFE6FFE1CFD9FF040EE12682
:10264000DE6ADE6ADE6ADD6ADD52DD52FA0EDB50DA
:102650001A0824E1FE0E006E01680268010E036E86
:10266000FB0EDBCFE9FFFC0EDBCFEAFFEE500016DE
:10267000EE500116EE500216EE500316D8900332BB
:1026800002320132003200C0DFFF010E01C0DBFF69
:10269000020E02C0DBFF030E03C0DBFFFA0EDB50AD
:1026A000220868E1030E006E016A026A036AFD0EE9
:1026B000DBCFE9FFFE0EDBCFEAFFEE500016EE5057
:1026C0000116EE500216EE500316FD0EDBCFE9FFA9
:1026D000FE0EDBCFEAFF00C0EEFF01C0EEFF02C03E
:1026E000EEFF03C0EEFFFD0EDBCFE9FFFE0EDBCFFA
:1026F000EAFF1E0EE76ED890EF36010EEB36020EA3
:10270000EB36030EEB36E706F6E1FB0EDBCFE9FF17
:10271000FC0EDBCFEAFFD890030EEB32020EEB3259
:10272000010EEB32EF32FB0EDBCFE9FFFC0EDBCF0D
:10273000EAFFEECF00F0EECF01F0EECF02F0EFCFE8
:1027400003F0FD0EDBCFE9FFFE0EDBCFEAFFEE501C
:102750000012EE500112EE500212EE50031200C0B1
:10276000DFFF010E01C0DBFF020E02C0DBFF030E24
:1027700003C0DBFFDECF10F0DECF11F0DECF12F0B2
:10278000DDCF13F0DD52DD52040EE15C02E2E16ABE
:10279000E552E16EE552E7CFD9FF1200D9CFE6FF4F
:1027A000E1CFD9FF480EE126CB0EE96E000EEA6EAE
:1027B000EE500001D05D006EEE50D159016EEE502A
:1027C000D259026EEE50D359036ED880190E0054C0
:1027D000000E0154000E0254000E035401E3C2D156
:1027E0001A0ECF5D07E0220ECF5D04E0080ECF5D2C
:1027F00001E0A7D1D890CA33C933C833C733200EFC
:10280000E76ECF19E8AE02D0CF3503D0E750D880BD
:10281000CF5505E2D890C633C533C433C3331A0E3F
:10282000CF5D04E0220ECF5D01E032D1CFC0E6FFE4
:10283000C70EE66E000EE66EC30EE66E000EE66E86
:10284000F9DE006E050EE15E0050420E10C0DBFFA7
:10285000430E11C0DBFF440E12C0DBFF450E13C058
:10286000DBFF410ECFC0DBFF0001CF6BC76BC86B36
:10287000C96BCA6BC36BC46BC56BC66B400EE66E8F
:10288000E66AE66AD9CFE6FFDACFE6FF16EC18F083
:10289000006E050EE15E0050400EDB6ADBCF00F0FB
:1028A000070EE76E0018E8AE02D0E73402D0E7501A
:1028B000005C73E20F0E046E056A066A076AD9505F
:1028C000420FE96EDACFEAFFEE500416EE5005161D
:1028D000EE500616EE500716D9CF00F0DACF01F011
:1028E000400EDBCF02F0036A02BE036800500224F0
:1028F000E96E01500320EA6E04C0EFFF420EDBCF09
:1029000004F0430EDBCF05F0440EDBCF06F0450E9E
:10291000DBCF07F0040ED8900732063205320432BE
:10292000E806F9E10F0E086E096A0A6A0B6AE850B8
:102930000416095005160A5006160B500716D9CF73
:1029400000F0DACF01F0400EDB28026E036A02BE0F
:10295000036800500224E96E01500320EA6E04C0AF
:10296000EFFFD950420FE96EDACFEAFF080EE76EAB
:10297000D890030EEB32020EEB32010EEB32EF3247
:10298000E706F6E1020E006E400EDBCFE7FF0050D7
:10299000E726400EE7CFDBFF81D7410EDB501A0858
:1029A0002CE1070EF36E400EF3CFDBFFDBCF00F020
:1029B000FF0EE76E0018E8AE02D0003403D0E750F7
:1029C000D880005401E3A5D0D9CF02F0DACF03F0CC
:1029D000400EDBCF04F0056A04BE056802500424F3
:1029E000006E03500520016E00C0E6FFE66ED2D8EF
:1029F000E552E552400EDB06D9D7400EDB6ADBCF4D
:102A000000F0080EE76E0018E8AE02D0E73402D0FE
:102A1000E750005C01E37DD0D9CF02F0DACF03F0BC
:102A2000400EDBCF04F0056A04BE056802500424A2
:102A3000006E03500520016E010E0026000E0122DB
:102A400000C0E6FF01C0E6FFA5D8E552E552D9CFA8
:102A500002F0DACF03F0400EDBCF04F0056A04BECB
:102A6000056802500424006E03500520016E00C06A
:102A7000E6FFE66E8FD8E552E552020E006E400E7C
:102A8000DBCFE7FF0050E726400EE7CFDBFFB7D7ED
:102A9000080ECF5D67E1C7C000F0C8C001F0C9C033
:102AA00002F0CAC003F0F00E0016016A026A036A5F
:102AB000040ED8900332023201320032E806F9E106
:102AC000460E00C0DBFFC7C000F0C8C001F0C9C09F
:102AD00002F0CAC003F00F0E0016016A026A036A10
:102AE000470E00C0DBFF0001CF6BC76BC86BC96B23
:102AF000CA6BC36BC46BC56BC66B460EDB1C0F0B7E
:102B0000F36E470EDB50F35C2DE1470EDB500B08F4
:102B100002E10D0E05D0470EDB500A0808E1080E51
:102B2000DF6ED9CFE6FFDACFE6FF6ADD07D0D950F6
:102B3000470FE66E000EDA20E66E2CD8E552E5521D
:102B400011D0D0C0CBF0D1C0CCF0D2C0CDF0D3C02A
:102B5000CEF0CF6BC76BC86BC96BCA6BC36BC46B52
:102B6000C56BC66B480EE15C02E2E16AE552E16EBC
:102B7000E552E7CFD9FF120011DE200E0001E76E0B
:102B80006019E8AE02D0E73402D0E750605D01E39F
:102B900064501200D9CFE6FFE1CFD9FF0201316BBB
:102BA000326BFD0EDBCFE9FFFE0EDBCFEAFFEFCF8E
:102BB000E9FFEA6AE9BEEA688E0EE926000EEA221B
:102BC000EFCF33F2346B356B366B376B386B080EE7
:102BD000E66E310EE66E020EE66E010EE66EE66EF3
:102BE0007EEC10F0006E050EE15E0050F3CFB9F000
:102BF000F4CFBAF0A6EC08F00001B951BA1102E125
:102C0000000E08D0B9C0E9FFBAC0EAFFEF50800B50
:102C100001E0010E0009F0E10201316B326B336B10
:102C2000346B356B366B376B386B080EE66E310ED6
:102C3000E66E020EE66E010EE66EE66E7EEC10F0BB
:102C4000006E050EE15E0050F3CFB9F0F4CFBAF09C
:102C5000A6EC08F00001B951BA1102E1000E08D04B
:102C6000B9C0E9FFBAC0EAFFEF50800B01E0010EE6
:102C70000009F0E1E552E7CFD9FF1200120012007F
:102C80001200120061EF17F012001E0EE66E010E28
:102C9000E66ED9EC0FF0E552E552010EE66E300E0D
:102CA000E66E020EE66EE66A010EE66E7EEC10F04F
:102CB000006E050EE15E0050F3CFBBF0F4CFBCF028
:102CC000120000017F051EE1000180051BE1D7DF36
:102CD00064920001806B0001100ED46F0E0ED56F50
:102CE000D407000ED55BD451D511FAE16484080EE7
:102CF000D46F070ED56FD407000ED55BD451D51114
:102D0000FAE164941200D9CFE6FFE1CFD9FFFD0EBE
:102D1000DBCF12F0FE0EDBCF13F0050E121801E12F
:102D2000135036E0E868121802E17F0E13182FE006
:102D3000030E121801E1135028E0020E121801E1EF
:102D4000135021E0010E121801E113501AE0740E25
:102D5000121801E1135013E0750E121801E113501F
:102D60000CE0730E121801E1135005E0720E1218F8
:102D70000FE113500DD084DF0BD080DF09D07FDF4F
:102D800007D083DF05D080DF03D07CDF01D079DF7F
:102D9000010EE552E7CFD9FF12000001280E766F31
:102DA000020E776F080E796F7A6BB60E7B6F2D0E61
:102DB0007C6F788F1200020128A103D08B808B8258
:102DC00002D08B908B920001BE6BE00EBF6F220E83
:0A2DD000C06F020EC16FC26B12004B
:062DDA00120100020000DE
:102DE0000008D80455000100010200010902290071
:102DF000010100C0320904000002030101000921A1
:102E000011010001223F00070581030800010705A9
:102E100001030800010403090434034D0069006341
:102E20000072006F006300680069007000200054A9
:102E3000006500630068006E006F006C006F006743
:102E4000007900200049006E0063002E002E034B25
:102E5000006500790062006F00610072006400206C
:102E600000440065006D006F0000000000000000DD
:102E7000000000000000000000000005010906A19C
:102E800001050719E029E71500250175019508815D
:102E90000295017508810395057501050819012939
:102EA0000591029501750391039506750815002596
:102EB000650507190029658100C0EC2D152E192E16
:022EC0004D2E95
:0E2EC200020120511F0B010801E012002451F3
:102ED00001E01200060E215D1EE12351230A1BE0D2
:102EE000010A0CE0030A17E10001610514E1000189
:102EF000FE0E716F2D0E726F090E09D00001610573
:102F00000AE100017B0E716F2E0E726F3F0E746F1F
:102F1000756BC00E736F02012051600BE842E842EE
:102F2000E842E842E842010801E0120021510B0AA0
:102F300028E0080A1BE0090A13E0080A07E00B0A68
:102F400003E0080A23E01200CDEF16F00001E00EC6
:102F5000716F000E726F010E746F756BC10E0FD022
:102F60000001800E736F23C2E0F012000001E10E39
:102F7000716F000E726F010E746F756B810E736F3F
:0E2F800012000001800E736F22C2E1F01200F9
:022F8E001E0E15
:102F9000F66E100EF76E000EF86E00010900F55087
:102FA000DB6F0900F550DC6F03E1DB6701D03DD03A
:102FB0000900F550D66F0900F550D76F0900F5509C
:102FC000D86F09000900F550E96E0900F550EA6E66
:102FD000090009000900F550D96F0900F550DA6FB2
:102FE00009000900F6CFDDF0F7CFDEF0F8CFDFF013
:102FF000D6C0F6FFD7C0F7FFD8C0F8FF0001D953FD
:1030000002E1DA5307E00900F550EE6ED907F8E265
:10301000DA07F9D7DDC0F6FFDEC0F7FFDFC0F8FF43
:0C3020000001DB07000EDC5BBFD71200D4
:04302C00FE0EE3CFE2
:10303000E9FFFF0EE3CFEAFFE9CFF3FFEACFF4FFAA
:10304000FB0EE35003E1FC0EE35009E0FB0EE30648
:1030500002E2FC0EE306FD0EE350EE6EF1D7120025
:10306000000EF36E00EE00F0030E01D81200EA60CD
:1030700002D0EE6AFCD7F350E9601200EE6AFCD78A
:1030800011EE00F021EE00F0F86A169CC7EC17F084
:0C30900003EC08F002EC12F0FBD7120079
:04309C00271E1F20AC
:1030A0002122232425260405060708090A0B0C0DF6
:1030B0000E0F101112131415161718191A1B1C1DB8
:0530C000282C2F302A2E
:020000040030CA
:0100000000FF
:0100010032CC
:0100020021DC
:010003001EDE
:0100050000FA
:010006008178
:0100080003F4
:01000900C036
:01000A0003F2
:01000B00E014
:01000C0003F0
:01000D0040B2
:00000001FF
